{
  "_format": "hh-sol-artifact-1",
  "contractName": "TweetPortal",
  "sourceName": "contracts/TweetPortal.sol",
  "abi": [
    {
      "anonymous": false,
      "inputs": [
        {
          "indexed": true,
          "internalType": "address",
          "name": "from",
          "type": "address"
        },
        {
          "indexed": false,
          "internalType": "string",
          "name": "message",
          "type": "string"
        },
        {
          "indexed": false,
          "internalType": "uint256",
          "name": "timestamp",
          "type": "uint256"
        }
      ],
      "name": "NewTweet",
      "type": "event"
    },
    {
      "inputs": [],
      "name": "getTweet",
      "outputs": [
        {
          "components": [
            {
              "internalType": "address",
              "name": "waver",
              "type": "address"
            },
            {
              "internalType": "string",
              "name": "message",
              "type": "string"
            },
            {
              "internalType": "uint256",
              "name": "timestamp",
              "type": "uint256"
            }
          ],
          "internalType": "struct TweetPortal.Tweet[]",
          "name": "",
          "type": "tuple[]"
        }
      ],
      "stateMutability": "view",
      "type": "function"
    },
    {
      "inputs": [
        {
          "internalType": "string",
          "name": "_message",
          "type": "string"
        }
      ],
      "name": "postTweet",
      "outputs": [],
      "stateMutability": "nonpayable",
      "type": "function"
    }
  ],
  "bytecode": "0x608060405234801561001057600080fd5b50610bef806100206000396000f3fe608060405234801561001057600080fd5b50600436106100365760003560e01c80630cbc3dc41461003b5780633a756bd614610057575b600080fd5b6100556004803603810190610050919061056b565b610075565b005b61005f6101ce565b60405161006c919061079f565b60405180910390f35b6100b66040518060400160405280601681526020017f257320747765657420772f206d6573736167652025730000000000000000000081525033834261031f565b600060405180606001604052803373ffffffffffffffffffffffffffffffffffffffff16815260200183815260200142815250908060018154018082558091505060019003906000526020600020906003020160009091909190915060008201518160000160006101000a81548173ffffffffffffffffffffffffffffffffffffffff021916908373ffffffffffffffffffffffffffffffffffffffff160217905550602082015181600101908161016e91906109cd565b506040820151816002015550503373ffffffffffffffffffffffffffffffffffffffff167f8a9271e96a86ee135b4ec5dd10102a5ccd82df893901bb04dec49b04a5645ba682426040516101c3929190610af8565b60405180910390a250565b60606000805480602002602001604051908101604052809291908181526020016000905b8282101561031657838290600052602060002090600302016040518060600160405290816000820160009054906101000a900473ffffffffffffffffffffffffffffffffffffffff1673ffffffffffffffffffffffffffffffffffffffff1673ffffffffffffffffffffffffffffffffffffffff16815260200160018201805461027b906107f0565b80601f01602080910402602001604051908101604052809291908181526020018280546102a7906107f0565b80156102f45780601f106102c9576101008083540402835291602001916102f4565b820191906000526020600020905b8154815290600101906020018083116102d757829003601f168201915b50505050508152602001600282015481525050815260200190600101906101f2565b50505050905090565b6103bb848484846040516024016103399493929190610b37565b6040516020818303038152906040527f91d1112e000000000000000000000000000000000000000000000000000000007bffffffffffffffffffffffffffffffffffffffffffffffffffffffff19166020820180517bffffffffffffffffffffffffffffffffffffffffffffffffffffffff83818316178352505050506103c1565b50505050565b6103d8816103d06103db6103fc565b63ffffffff16565b50565b60006a636f6e736f6c652e6c6f679050600080835160208501845afa505050565b610407819050919050565b61040f610b8a565b565b6000604051905090565b600080fd5b600080fd5b600080fd5b600080fd5b6000601f19601f8301169050919050565b7f4e487b7100000000000000000000000000000000000000000000000000000000600052604160045260246000fd5b6104788261042f565b810181811067ffffffffffffffff8211171561049757610496610440565b5b80604052505050565b60006104aa610411565b90506104b6828261046f565b919050565b600067ffffffffffffffff8211156104d6576104d5610440565b5b6104df8261042f565b9050602081019050919050565b82818337600083830152505050565b600061050e610509846104bb565b6104a0565b90508281526020810184848401111561052a5761052961042a565b5b6105358482856104ec565b509392505050565b600082601f83011261055257610551610425565b5b81356105628482602086016104fb565b91505092915050565b6000602082840312156105815761058061041b565b5b600082013567ffffffffffffffff81111561059f5761059e610420565b5b6105ab8482850161053d565b91505092915050565b600081519050919050565b600082825260208201905092915050565b6000819050602082019050919050565b600073ffffffffffffffffffffffffffffffffffffffff82169050919050565b600061060b826105e0565b9050919050565b61061b81610600565b82525050565b600081519050919050565b600082825260208201905092915050565b60005b8381101561065b578082015181840152602081019050610640565b60008484015250505050565b600061067282610621565b61067c818561062c565b935061068c81856020860161063d565b6106958161042f565b840191505092915050565b6000819050919050565b6106b3816106a0565b82525050565b60006060830160008301516106d16000860182610612565b50602083015184820360208601526106e98282610667565b91505060408301516106fe60408601826106aa565b508091505092915050565b600061071583836106b9565b905092915050565b6000602082019050919050565b6000610735826105b4565b61073f81856105bf565b935083602082028501610751856105d0565b8060005b8581101561078d578484038952815161076e8582610709565b94506107798361071d565b925060208a01995050600181019050610755565b50829750879550505050505092915050565b600060208201905081810360008301526107b9818461072a565b905092915050565b7f4e487b7100000000000000000000000000000000000000000000000000000000600052602260045260246000fd5b6000600282049050600182168061080857607f821691505b60208210810361081b5761081a6107c1565b5b50919050565b60008190508160005260206000209050919050565b60006020601f8301049050919050565b600082821b905092915050565b6000600883026108837fffffffffffffffffffffffffffffffffffffffffffffffffffffffffffffffff82610846565b61088d8683610846565b95508019841693508086168417925050509392505050565b6000819050919050565b60006108ca6108c56108c0846106a0565b6108a5565b6106a0565b9050919050565b6000819050919050565b6108e4836108af565b6108f86108f0826108d1565b848454610853565b825550505050565b600090565b61090d610900565b6109188184846108db565b505050565b5b8181101561093c57610931600082610905565b60018101905061091e565b5050565b601f8211156109815761095281610821565b61095b84610836565b8101602085101561096a578190505b61097e61097685610836565b83018261091d565b50505b505050565b600082821c905092915050565b60006109a460001984600802610986565b1980831691505092915050565b60006109bd8383610993565b9150826002028217905092915050565b6109d682610621565b67ffffffffffffffff8111156109ef576109ee610440565b5b6109f982546107f0565b610a04828285610940565b600060209050601f831160018114610a375760008415610a25578287015190505b610a2f85826109b1565b865550610a97565b601f198416610a4586610821565b60005b82811015610a6d57848901518255600182019150602085019450602081019050610a48565b86831015610a8a5784890151610a86601f891682610993565b8355505b6001600288020188555050505b505050505050565b600082825260208201905092915050565b6000610abb82610621565b610ac58185610a9f565b9350610ad581856020860161063d565b610ade8161042f565b840191505092915050565b610af2816106a0565b82525050565b60006040820190508181036000830152610b128185610ab0565b9050610b216020830184610ae9565b9392505050565b610b3181610600565b82525050565b60006080820190508181036000830152610b518187610ab0565b9050610b606020830186610b28565b8181036040830152610b728185610ab0565b9050610b816060830184610ae9565b95945050505050565b7f4e487b7100000000000000000000000000000000000000000000000000000000600052605160045260246000fdfea26469706673582212206c0a1e6caae78c343a03d50337aa69924f8f7c4580de727985d5e01bd703a96464736f6c63430008180033",
  "linkReferences": {},
  "deployedLinkReferences": {}
}