{
  "_format": "hh-sol-artifact-1",
  "contractName": "TweetPortal",
  "sourceName": "contracts/TweetPortal.sol",
  "abi": [
    {
      "anonymous": false,
      "inputs": [
        {
          "indexed": true,
          "internalType": "address",
          "name": "from",
          "type": "address"
        },
        {
          "indexed": false,
          "internalType": "string",
          "name": "message",
          "type": "string"
        }
      ],
      "name": "NewTweet",
      "type": "event"
    },
    {
      "inputs": [],
      "name": "getTweet",
      "outputs": [
        {
          "components": [
            {
              "internalType": "address",
              "name": "waver",
              "type": "address"
            },
            {
              "internalType": "string",
              "name": "message",
              "type": "string"
            }
          ],
          "internalType": "struct TweetPortal.Tweet[]",
          "name": "",
          "type": "tuple[]"
        }
      ],
      "stateMutability": "view",
      "type": "function"
    },
    {
      "inputs": [
        {
          "internalType": "string",
          "name": "_message",
          "type": "string"
        }
      ],
      "name": "postTweet",
      "outputs": [],
      "stateMutability": "nonpayable",
      "type": "function"
    }
  ],
  "bytecode": "0x608060405234801561001057600080fd5b50610b82806100206000396000f3fe608060405234801561001057600080fd5b50600436106100365760003560e01c80630cbc3dc41461003b5780633a756bd614610057575b600080fd5b6100556004803603810190610050919061054b565b610075565b005b61005f6101bb565b60405161006c9190610753565b60405180910390f35b6100b56040518060400160405280601681526020017f257320747765657420772f206d657373616765202573000000000000000000008152503383610302565b600060405180604001604052803373ffffffffffffffffffffffffffffffffffffffff16815260200183815250908060018154018082558091505060019003906000526020600020906002020160009091909190915060008201518160000160006101000a81548173ffffffffffffffffffffffffffffffffffffffff021916908373ffffffffffffffffffffffffffffffffffffffff1602179055506020820151816001019081610167919061098b565b5050503373ffffffffffffffffffffffffffffffffffffffff167f84970d0f86d8acaba1739930a2d8d81f92fdb25d0a9d116162263795f1fa3d0d826040516101b09190610aa7565b60405180910390a250565b60606000805480602002602001604051908101604052809291908181526020016000905b828210156102f957838290600052602060002090600202016040518060400160405290816000820160009054906101000a900473ffffffffffffffffffffffffffffffffffffffff1673ffffffffffffffffffffffffffffffffffffffff1673ffffffffffffffffffffffffffffffffffffffff168152602001600182018054610268906107a4565b80601f0160208091040260200160405190810160405280929190818152602001828054610294906107a4565b80156102e15780601f106102b6576101008083540402835291602001916102e1565b820191906000526020600020905b8154815290600101906020018083116102c457829003601f168201915b505050505081525050815260200190600101906101df565b50505050905090565b61039c83838360405160240161031a93929190610ad8565b6040516020818303038152906040527fe0e9ad4f000000000000000000000000000000000000000000000000000000007bffffffffffffffffffffffffffffffffffffffffffffffffffffffff19166020820180517bffffffffffffffffffffffffffffffffffffffffffffffffffffffff83818316178352505050506103a1565b505050565b6103b8816103b06103bb6103dc565b63ffffffff16565b50565b60006a636f6e736f6c652e6c6f679050600080835160208501845afa505050565b6103e7819050919050565b6103ef610b1d565b565b6000604051905090565b600080fd5b600080fd5b600080fd5b600080fd5b6000601f19601f8301169050919050565b7f4e487b7100000000000000000000000000000000000000000000000000000000600052604160045260246000fd5b6104588261040f565b810181811067ffffffffffffffff8211171561047757610476610420565b5b80604052505050565b600061048a6103f1565b9050610496828261044f565b919050565b600067ffffffffffffffff8211156104b6576104b5610420565b5b6104bf8261040f565b9050602081019050919050565b82818337600083830152505050565b60006104ee6104e98461049b565b610480565b90508281526020810184848401111561050a5761050961040a565b5b6105158482856104cc565b509392505050565b600082601f83011261053257610531610405565b5b81356105428482602086016104db565b91505092915050565b600060208284031215610561576105606103fb565b5b600082013567ffffffffffffffff81111561057f5761057e610400565b5b61058b8482850161051d565b91505092915050565b600081519050919050565b600082825260208201905092915050565b6000819050602082019050919050565b600073ffffffffffffffffffffffffffffffffffffffff82169050919050565b60006105eb826105c0565b9050919050565b6105fb816105e0565b82525050565b600081519050919050565b600082825260208201905092915050565b60005b8381101561063b578082015181840152602081019050610620565b60008484015250505050565b600061065282610601565b61065c818561060c565b935061066c81856020860161061d565b6106758161040f565b840191505092915050565b600060408301600083015161069860008601826105f2565b50602083015184820360208601526106b08282610647565b9150508091505092915050565b60006106c98383610680565b905092915050565b6000602082019050919050565b60006106e982610594565b6106f3818561059f565b935083602082028501610705856105b0565b8060005b85811015610741578484038952815161072285826106bd565b945061072d836106d1565b925060208a01995050600181019050610709565b50829750879550505050505092915050565b6000602082019050818103600083015261076d81846106de565b905092915050565b7f4e487b7100000000000000000000000000000000000000000000000000000000600052602260045260246000fd5b600060028204905060018216806107bc57607f821691505b6020821081036107cf576107ce610775565b5b50919050565b60008190508160005260206000209050919050565b60006020601f8301049050919050565b600082821b905092915050565b6000600883026108377fffffffffffffffffffffffffffffffffffffffffffffffffffffffffffffffff826107fa565b61084186836107fa565b95508019841693508086168417925050509392505050565b6000819050919050565b6000819050919050565b600061088861088361087e84610859565b610863565b610859565b9050919050565b6000819050919050565b6108a28361086d565b6108b66108ae8261088f565b848454610807565b825550505050565b600090565b6108cb6108be565b6108d6818484610899565b505050565b5b818110156108fa576108ef6000826108c3565b6001810190506108dc565b5050565b601f82111561093f57610910816107d5565b610919846107ea565b81016020851015610928578190505b61093c610934856107ea565b8301826108db565b50505b505050565b600082821c905092915050565b600061096260001984600802610944565b1980831691505092915050565b600061097b8383610951565b9150826002028217905092915050565b61099482610601565b67ffffffffffffffff8111156109ad576109ac610420565b5b6109b782546107a4565b6109c28282856108fe565b600060209050601f8311600181146109f557600084156109e3578287015190505b6109ed858261096f565b865550610a55565b601f198416610a03866107d5565b60005b82811015610a2b57848901518255600182019150602085019450602081019050610a06565b86831015610a485784890151610a44601f891682610951565b8355505b6001600288020188555050505b505050505050565b600082825260208201905092915050565b6000610a7982610601565b610a838185610a5d565b9350610a9381856020860161061d565b610a9c8161040f565b840191505092915050565b60006020820190508181036000830152610ac18184610a6e565b905092915050565b610ad2816105e0565b82525050565b60006060820190508181036000830152610af28186610a6e565b9050610b016020830185610ac9565b8181036040830152610b138184610a6e565b9050949350505050565b7f4e487b7100000000000000000000000000000000000000000000000000000000600052605160045260246000fdfea2646970667358221220eea9911c42085624c52770df39499efac017ea2f210e0d15e5b811bebe1f5fbb64736f6c63430008180033",
  "linkReferences": {},
  "deployedLinkReferences": {}
}